:1000000080311328053008007E1480318B1D0928AB
:100010000A2811280B1C0D280E2811288D310425C3
:1000200080317E100900803115288731FF2780310B
:10003000ED004C3084000030850021308C31E72405
:1000400080317E102000803125288E31ED268031D0
:100050008D302000A0000C30A1008C31E1248031D3
:1000600000302000A000A1008F313C2780310030FB
:100070002000A000A1008F315827803100302000DF
:10008000A000A1008F31742780310F302000BB0009
:100090003B08B3000E3086318F2680312000BC0033
:1000A0003C08C70035304706031D572858286028EC
:1000B000A030A0000030A1008F3174278031672864
:1000C000A030A0000030A1008F31582780311D30B2
:1000D0002000BB003B08B3008030BC003C08B400EB
:1000E0000E308631C7268031E8302000A000033072
:1000F000A1008E31D52680311E302000BB003B0888
:10010000B3002830BC003C08B4000E308631C7264E
:1001100080311F302000BB003B08B300BF30BC0063
:100120003C08B4000E308631C72680311B302000D9
:10013000BB003B08B300B4010E308631C7268031C6
:100140001B302000BB003B08B3000230BC003C0861
:10015000B4000E308631C72680311B302000BB0032
:100160003B08B3008230BC003C08B4000E3086313E
:10017000C72680311B302000BB003B08B3000E3087
:1001800086318F2680312000C401C501C601C80117
:100190000730BB003B08B3000E3086318F2680311C
:1001A0002000BC003C08C9000930BB003B08B3007C
:1001B0000E3086318F2680312000BC003C08CA00FA
:1001C0000B30BB003B08B3000E3086318F268031E8
:1001D0002000BC003C08CB0049088E3150268031FD
:1001E0002000BB00BC01BB1BBC034B088E3150265A
:1001F00080312000BD00BE01BD1BBE034A088E3108
:10020000502680312000BF00C001BF1BC0033D0845
:100210003F07C1003E08403DC2004208803AC3008B
:100220003C08803A4302031D17293B08410203188A
:100230001A291B29542900302000A000A1008F3169
:100240003C27803100302000A000A1008F315827CA
:10025000803100302000A000A1008F317427803150
:1002600064302000A0000030A1008E31D5268031FE
:1002700020006D08803A7C3E03183F294029E92A76
:100280006D08683E86008701010303194829492942
:10029000E92A6D08693E860087018101810A0130E3
:1002A000BB003B08ED07E92A20004A088E315026A2
:1002B00080312000BB00BC01BB1BBC034B088E314E
:1002C000502680312000BD00BE01BD1BBE03490881
:1002D0008E31502680312000BF00C001BF1BC003FB
:1002E0003D083F07C1003E08403DC2004208803A39
:1002F000C3003C08803A4302031D80293B084102A9
:100300000318832984290A2A00302000A000A100B4
:100310008F313C27803100302000A000A1008F31B8
:100320005827803100302000A000A1008F317427B1
:10033000803164302000A0000030A1008E31D5262D
:10034000803120006D08803A7C3E0318A829A92935
:10035000C0296D08683E8600870102300106031936
:10036000B229B329C0290230BB006D08693E86005E
:1003700087013B0881000130BB003B08ED07C80145
:1003800002306A06031DC529C629F6296B03031D21
:10039000CA29CB29F62902306C06031DD029D129A0
:1003A000F6298331F72380312000EA01EB01EC01CB
:1003B000ED01ED0A0030A000A1008F313C27803113
:1003C00000302000A000A1008F315827803100307C
:1003D0002000A000A1008F3174278031F43020006C
:1003E000A0000130A1008E31D526803101302000DF
:1003F000BB003B08C8074808803A7C3E031C012A22
:10040000022AE92AE901EA01EB01EC01ED01ED0A1A
:10041000C801E92A20004B088E3150268031200087
:10042000BB00BC01BB1BBC0349088E315026803188
:100430002000BD00BE01BD1BBE034A088E31502600
:1004400080312000BF00C001BF1BC0033D083F0733
:10045000C1003E08403DC2004208803AC3003C084B
:10046000803A4302031D362A3B0841020318392A09
:100470003A2AE92A00302000A000A1008F313C2751
:10048000803100302000A000A1008F31582780313A
:1004900000302000A000A1008F317427803164302B
:1004A0002000A0000030A1008E31D5268031200030
:1004B0006D08803A7C3E03185E2A5F2A762A6D0812
:1004C000683E86008701033001060319682A692AFD
:1004D000762A0330BB006D08693E860087013B0821
:1004E00081000130BB003B08ED07B02A6D08683E73
:1004F0008600870103300106031D7F2A802AB02A67
:1005000002306A06031D852A862AB02A03306B064C
:10051000031D8B2A8C2AB02A853151258031200079
:10052000EA01EB01ED01ED0A0030A000A1008F31DE
:100530003C27803100302000A000A1008F315827D7
:10054000803100302000A000A1008F31742780315D
:10055000F4302000A0000130A1008E31D52680317A
:10056000023020006A06031DB62AB72AE72A6B0369
:10057000031DBB2ABC2AE72A03306C06031DC12ACF
:10058000C22AE72A8331112380312000EA01EB01DE
:10059000EC01ED01ED0A0030A000A1008F313C27F5
:1005A000803100302000A000A1008F315827803119
:1005B00000302000A000A1008F3174278031F4307A
:1005C0002000A0000130A1008E31D526803120000E
:1005D000C80107302000BB003B08B3000E30863155
:1005E0008F2680312000BC003C08C4000930BB00CD
:1005F0003B08B3000E3086318F2680312000BC00CE
:100600003C08C5000B30BB003B08B3000E30863100
:100610008F2680312000BC003C08C600C8288031ED
:10062000132800302000A000A1008F313C27833127
:1006300000302000A000A1008F3158278331003006
:100640002000A000A1008F31742783312000A60173
:100650002608A400A5012408A0002508A1008F31C8
:100660003C27833164302000A0000030A1008E318F
:10067000D526833101302000A4002408A6071430B9
:100680002602031C442B452B282BA6012608A40078
:10069000A5012408A0002508A1008F315827833127
:1006A00020002608A400A5012408A0002508A10018
:1006B0008F317427833164302000A0000030A10006
:1006C0008E31D526833101302000A4002408A607EE
:1006D00014302602031C6D2B6E2B462B1430A40005
:1006E0002408A6002608A400A5012408A0002508C7
:1006F000A1008F313C27833120002608A400A501EA
:100700002408A0002508A1008F315827833120003C
:100710002608A400A5012408A0002508A1008F3107
:10072000742783310A302000A0000030A1008E31F0
:10073000D526833101302000A4002408A6076430A8
:100740002602031CA42BA52B722BB830A0000B3063
:10075000A1008E31D526833164302000A400240806
:10076000A6002608A400A5012408A0002508A100D1
:100770008F313C27833120002608A400A5012408DE
:10078000A0002508A1008F315827833120002608BA
:10079000A400A5012408A0002508A1008F3174271A
:1007A00083310A302000A0000030A1008E31D52610
:1007B000833101302000A602023026020318E12B0B
:1007C000E22BB12B0030A000A1008F313C278331F8
:1007D00000302000A000A1008F3158278331003065
:1007E0002000A000A1008F317427833108008E31D2
:1007F0007A2683312000A9012908A700A80127082B
:10080000A0002808A1008F31582783310A3020002A
:10081000A0000030A1008E31D526833101302000A8
:10082000A7002708A907A0302902031C182C192C9F
:10083000FC2B8E317A26833190302000A0000130CD
:10084000A1008E31D52683318631FC26833190304C
:100850002000A0000130A1008E31D52683318631E1
:10086000FC26833132302000A0000030A1008E3100
:10087000D52683318631FC26833132302000A0001A
:100880000030A1008E31D52683318631FC2683319C
:100890002C302000A0000130A1008E31D5268331FC
:1008A0008631FC26833114302000A0000030A100E6
:1008B0008E31D52683318631FC26833114302000D9
:1008C000A0000030A1008E31D52683318631FC2670
:1008D000833114302000A0000030A1008E31D526D5
:1008E00083318631FC26833164302000A000003043
:1008F000A1008E31D52683318631FC268331143018
:100900002000A0000030A1008E31D5268331863131
:10091000FC26833114302000A0000030A1008E316D
:10092000D52683318631FC26833114302000A00087
:100930000030A1008E31D52683318631FC268331EB
:1009400014302000A0000030A1008E31D526833164
:100950008E317A26833108008D31A5258431F90145
:100960007908F700F8017708F0007808F1008E3177
:10097000A72684310A30F0000030F1008E31642661
:1009800084310130F7007708F907A0307902031CA1
:10099000CA2CCB2CB02C8D31A52584319030F000A1
:1009A0000130F1008E316426843187315F27843134
:1009B0009030F0000130F1008E31642684318731AF
:1009C0005F2784313230F0000030F1008E31642630
:1009D000843187315F2784313230F0000030F100FC
:1009E0008E316426843187315F2784312C30F000CA
:1009F0000130F1008E316426843187315F278431E4
:100A00001430F0000030F1008E31642684318731DB
:100A10005F2784311430F0000030F1008E316426FD
:100A2000843187315F2784311430F0000030F100C9
:100A30008E316426843187315F2784316430F00041
:100A40000030F1008E316426843187315F27843194
:100A50001430F0000030F1008E316426843187318B
:100A60005F2784311430F0000030F1008E316426AD
:100A7000843187315F2784311430F0000030F10079
:100A80008E316426843187315F2784311430F00041
:100A90000030F1008E31642684318D31A5258431FA
:100AA00008002000BA01BA0A0A30A0000030A100F4
:100AB0008F313C27853164302000A0000030A10038
:100AC0008F315827853155302000A0000030A1001B
:100AD0008F317427853164302000A0000030A100E0
:100AE0008E31D526853109302000B7003708B30094
:100AF0000E3086318F2685312000B8003808B900C5
:100B0000B02D0930B7003708B3000E3086318F267C
:100B100085312000B800390838028E3150268531E1
:100B2000803A6B3E031C952D962D982D2000BA011E
:100B30000B302000A0000030A1008F313C27853110
:100B4000A0302000A0000030A1008F31582785314F
:100B5000A0302000A0000030A1008F317427853123
:100B600020003A08031DB52DB62D812D08008C31CB
:100B7000D5248531003A0319BE2DBF2DF02DCC2D83
:100B80008C31A22485310C2E8C31A72485310C2E7A
:100B90008C31B12485310C2E20005B08AA002A0874
:100BA000A90006304C3E86008701413F8A00403F45
:100BB0000A0085312000AB00AC012C08003A031973
:100BC000E22DC82D2B08013A0319C82D033A031949
:100BD000C02D013A0319C42D073A0319C82DC82D99
:100BE0002000681017304C3E86008701403F84008B
:100BF0008501810A00088C31CF2485310130200025
:100C0000E4020030E53B64086504031D082E092E4C
:100C10000B2E06300C2E033008008C3187248631D1
:100C20002000AA006308860087012A08810001309D
:100C3000AA002A08E3070130E4020030E53B64081B
:100C400065040319242E252E2A2E8C3195248631F5
:100C50000530532EE815342E8C31C0248631532EA6
:100C60008C31BB248631532E5808AA002A08A900CB
:100C70004D088A004C080A0086312000AB00AC0108
:100C80002C08003A0319452E302E2B08013A03197F
:100C9000302E033A03192C2E013A03192C2E073A51
:100CA0000319302E302E08002000A100A201A20A54
:100CB00068195B2E5C2E8D2E2108A0002008E20012
:100CC000E810681568100E30A0002008E600F43027
:100CD000E0000130E100E8157030CC000C30CD00B0
:100CE000D8017030CE000C30CF00D9017030D00068
:100CF0000C30D100DA017030D2000C30D300DB01AF
:100D00000230D4000030D500DC018C3172248631F1
:100D10008D31422586312000A201220808002000E2
:100D2000B500B60120003508863154268631003AD8
:100D300003199B2E9C2E922ECB302000A5000D3047
:100D4000A6003630B4003408A7008D315D25863109
:100D500001302000A0000030A10033308D319525F6
:100D6000863100302000A500A600A7018D316B253B
:100D700086318C31CA2486318F3120278631013A61
:100D80000319C32EC42EBC2E2000360808002000F4
:100D9000B60020003608863154268631003A031901
:100DA000D22ED32EC92EF1302000A5000D30A60082
:100DB0003430B5003508A7008D315D25863101300E
:100DC0002000A0000030A10033308D319525863100
:100DD00000302000A500A600A7018D316B258631CB
:100DE0008C31CA2486318F3120278631013A03198C
:100DF000FA2EFB2EF32E0800A0302000A0000030B9
:100E0000A1008F315827863164302000A0000030C7
:100E1000A1008E31D526863114302000A40024088C
:100E2000A6002608A400A5012408A0002508A1000A
:100E30008F315827863101302000A0000030A100FA
:100E40008E31D526863101302000A6022608031DEA
:100E50002A2F2B2F112F8E317A2686310800200061
:100E6000E8153F2F8C31AC2487315E2F8C318A24DA
:100E7000873103305E2F8C31B12487315E2F5808C3
:100E8000AA002A08A9004D088A004C080A008731E8
:100E90002000AB00AC012C08003A0319502F3B2F67
:100EA0002B08013A03193B2F033A0319322F013A59
:100EB0000319322F073A0319362F3B2F0800A030B1
:100EC000F0000030F1008E31A72687316430F00049
:100ED0000030F1008E31642687311430F40074083C
:100EE000F6007608F400F5017408F0007508F100CA
:100EF0008E31A72687310130F0000030F1008E31AD
:100F0000642687310130F6027608031D882F892F69
:100F1000712F8D31A525873108002000681002301F
:100F2000AA002A08E7009C2F8C31AC248731B92F06
:100F30008C31B1248731B92F5A08AA002A08A90098
:100F400004304C3E86008701413F8A00403F0A0042
:100F500087312000AB00AC012C08003A0319B12FF7
:100F6000982F2B08023A0319942F013A0319942F52
:100F7000982F08008C31722487312000681CC12F03
:100F8000C22FCF2F8C31D5248731003A0319C92FB6
:100F9000CA2FCF2F0F302000AD002D08E600200013
:100FA0006608AD00AE01AD35AE0D00302D078400F2
:100FB00090302E3D8500013F8A00003F0A008731B6
:100FC0002000AF002F08E600080020002908860056
:100FD0008701403FA000413FA1002908023E860052
:100FE000870101088D319525873100302000A5004B
:100FF000A600A7018D315D2587310230080001343C
:1018DE000800013008002000911108002400951224
:1018EE00080021009111080024001614080024009D
:1018FE0096140800240016150800240096150800FA
:10190E002400110808002000911508008431AC2431
:10191E008C31080024009616161608002400961224
:10192E001616080016302100970008002000E81057
:10193E00E7010E3008008C317E248C310130080016
:10194E008C317E248C31023008008C317E248C3117
:10195E00013008008C3181248C31003008008C312C
:10196E0095248C31053008008C3191248C310A304D
:10197E0008008C3191248C31093008002000E810C9
:10198E00E7010E30080000308F3190278C310800AF
:10199E002000A00020082400910008002400160E4C
:1019AE00890C890C013908002000911DDF2CE02CD8
:1019BE00DB2C080020002108FB002008FA0008009C
:1019CE00640080010131890BE82C0034200068107E
:1019DE008C3184248C310430080020006814623568
:1019EE008C31CF248C3103300800273020009B002F
:1019FE009A01911007309C0008002700961F082DB1
:101A0E00092D0C2D8D314F258D31080020006814C5
:101A1E000314620D8C31CF248D3105300800240063
:101A2E0094010830950096014F30920095120800EF
:101A3E003C3026009A000330980099013F30250073
:101A4E009E05080070302100990098012200960131
:101A5E0021001A1F332D342D2F2D08003C2D8C31D3
:101A6E00DB248D318731BA278D312000E818402DC7
:101A7E00412D362D08002400951A462D472D4E2D4A
:101A8E0094010830950096014F309200951608008B
:101A9E007A087B040319542D552D5A2D7B088A0084
:101AAE007A080A008D3127009613080020002608B8
:101ABE00A1002508A0002708A8002808A2000030D1
:101ACE008F31AF278D31080020002608A100250890
:101ADE00A0002708A8002808A20002308F31AF27E7
:101AEE008D3108003C302500930095018030940024
:101AFE0001309600920113309100FC309E050800D3
:101B0E003C3025009A009C0180309B0001309D00E6
:101B1E00990113309800F3309E0508002000A300B1
:101B2E00E81D9A2D9B2DA42D2308A2002208E30068
:101B3E002108E5002008E400E81108000030F0005C
:101B4E00F1008E3190268D310030F000F1008E3193
:101B5E00A7268D310030F000F1008E31BE268D317A
:101B6E00080002302000A0000030A10029088D31AD
:101B7E0095258D3100302000A500A600A7018D31DE
:101B8E005D258D310430080001302000A0000030AA
:101B9E00A10029088D3195258D3100302000A5003A
:101BAE00A600A7018D315D258D310230080002306F
:101BBE002000A0000030A10029088D3195258D311F
:101BCE0000302000A500A600A7018D315D258D31C6
:101BDE000230080001302000A0000030A1002908CA
:101BEE008D3195258D3100302000A500A600A7016E
:101BFE008D315D258D310430080002302000A000AB
:101C0E000030A10029088D3195258E31003020003D
:101C1E00A500A600A7018D315D258E310430080088
:101C2E0001302000A0000030A10029088D3195253B
:101C3E008E3100302000A500A600A7018D315D2554
:101C4E008E310430080001302000A0000030A100C9
:101C5E0029088D3195258E3100302000A500A60073
:101C6E00A7018D315D258E31023008000230200033
:101C7E00A0000030A10029088D3195258E3100304D
:101C8E002000A500A600A7018D315D258E31023002
:101C9E0008002000A0002008803A7F3E031C582E2A
:101CAE00592E5B2E2008632EA01F5E2E5F2E622EF5
:101CBE002003FF3A632E003008006D2E0B30F20029
:101CCE006230890B682EF20B682E00320130F00262
:101CDE000030F13B700A031D782E710A031D782E19
:101CEE00792E652E080000302000A000A1008F3153
:101CFE003C278E3100302000A000A1008F315827E4
:101D0E008E3100302000A000A1008F3174278E315B
:101D1E0008007108F3007008F200F336F20CF33687
:101D2E00F20C72082500910070080339F20004309D
:101D3E00F235890B9F2E1308CF39720493000800D9
:101D4E007108F3007008F200F336F20CF336F20C61
:101D5E0072082500980070080339F2000430F2353D
:101D6E00890BB62E1A08CF3972049A000800710832
:101D7E00F3007008F200F336F20CF336F20C720830
:101D8E002600980070080339F2000430F235890BF2
:101D9E00CD2E1A08CF3972049A000800DF2E0B30B0
:101DAE002000A2006230890BDA2EA20BDA2E000080
:101DBE0001302000A0020030A13B200A031DEB2EB3
:101DCE00210A031DEB2EEC2ED62E08008D31162582
:101DDE008E318F31D6278E318D3129258E318C3132
:101DEE0099248E318D3187258E318D3179258E3125
:101DFE008D311F258E318C31FC248E310800200050
:101E0E00290886008701403FA000413FA100290814
:101E1E00023E8600870101088D3195258F310030F5
:101E2E002000A500A600A7018D315D258F3102305F
:101E3E0008002000A101A10AE818262F272F3A2F0B
:101E4E006811FF30A0002008E2008C3172248F311F
:101E5E008C3178248F318C3175248F3120006708B6
:101E6E00A0002008A1002108080020002108A300DE
:101E7E002008A200A336A20CA336A20C220825002D
:101E8E009100200020080339A2000430A235890BEE
:101E9E004D2F25001308CF39200022042500930072
:101EAE00080020002108A3002008A200A336A20CDF
:101EBE00A336A20C22082500980020002008033922
:101ECE00A2000430A235890B692F25001A08CF39DC
:101EDE002000220425009A00080020002108A300FB
:101EEE002008A200A336A20CA336A20C22082600BC
:101EFE009800200020080339A2000430A235890B77
:101F0E00852F26001A08CF392000220426009A00B9
:101F1E0008002000B100B201B20AE818972F982FDE
:101F2E00AC2FE814B201310803199E2F9F2FA22F58
:101F3E00E601E60AA62F0230B0003008E6008C312A
:101F4E007B248F318D3135258F31200032080800EA
:101F5E002000A400200821040319B62FB72FC82F84
:101F6E0024354C3E860087012008C03F2108C13F22
:101F7E002208A3002408583E86008701230881000A
:101F8E00D52F24354C3E860087017030C03F0C3073
:101F9E00C13F2408583E86008701810108002200B7
:101FAE008C018D018E013F3021008C00F0308D00B0
:101FBE0097308E00873023008E0020308D00173032
:101FCE008C00803024008D008C018E012100951331
:101FDE0022009D019E0127009613951794136F30D2
:101FEE002000A0000C30A1008C31E1248F318B1524
:101FFE0008009D340C340D340D34F4340C34B734E5
:10200E0005340D340634ED340C342F340734A23439
:10201E000C34A7340C34AC340C34B1340C34B63428
:10202E000C34BB340C34C0340C34C5340C348D3405
:02203E00073465
:020000040001F9
:04000E00E43FFF3F8D
:00000001FF
