:10000000803102288731DC2F053008002000A20053
:10001000200022088F3187278031003A03191128E8
:10002000122808281A30F4000D30F5002130F600AF
:100030008C31712480310130F0000030F10020302B
:100040008C31AD2480310030F400F5000030F60032
:10005000F7008C317C2480318C31052480318D3146
:1000600097258031013A0319362837282F280800B0
:100070008C310A248031003A03193F2840286E2829
:100080004D288B31DD2380318A288B31E22380316A
:100090008A288B31EC2380318A2820005C08F70005
:1000A00006304D3E86008701413F8A00403F0A00EE
:1000B0008031F800F9017908003A031960284928CD
:1000C0007808013A03194928033A03194128013AEB
:1000D00003194528073A03194928492820006910BF
:1000E00017304D3E86008701403F84008501810A1C
:1000F00000088B31D323803101302000E50200302D
:10010000E63B65086604031D862887288928063093
:100110008A28033008007408750403199028912870
:10012000972874087504031D962897289C28720840
:100130008C3128248031E7287408860075088700F0
:100140004931160001040319A628A728C7287408F6
:100150008600750887004931403FF600413FF700AF
:1001600074088600750887004231403FF800413F1F
:10017000F9007908803AFA007708803A7A02031D7C
:10018000C328760878020318C628C728E728740809
:100190008600750887004231740884007508850060
:1001A000403F0007F6000131413F003DF70076086F
:1001B0008600770887007208810074088600750839
:1001C000870042310130810741310318810A08005C
:1001D0002000220886008701403FA400413FA5007F
:1001E00024088400250885001200253A031DF928FB
:1001F000FA284D2922088600870101308107413104
:100200000318810A2100C001C10103100030031846
:1002100001302000EE00FF302100C200FF30C3009B
:100220002000220886008701403FA400413FA5002E
:1002300024088400250885001200633A031D212943
:100240002229432922088600870101308107413194
:100250000318810A230886008701010884008501AC
:10026000023081070008FB007B08A400A5012408D8
:10027000F2002508F3002108F5002008F400803181
:100280008B208031672920002208860087010130F9
:10029000810741310318810A6729220886008701F6
:1002A000403FA400413FA5002408840025088500A4
:1002B0000008A600A7012608F2002708F30021087D
:1002C000F5002008F40080318B208031432908009C
:1002D0004E302000AF009030B0008C31D7248131F7
:1002E0000030F000F1008D31522581310030F000F6
:1002F000F1008D31692581311430F0000030F100BA
:100300008D31802581312C30F0000130F1008D31AC
:100310003C2581310030F000F1008D3152258131D2
:100320000030F000F1008D31692581312830F00076
:100330000030F1008D31802581312C30F00001300A
:10034000F1008D313C2581310030F000F1008D311C
:10035000522581310030F000F1008D316925813165
:100360003C30F0000030F1008D31802581312C309F
:10037000F0000130F1008D313C2581310030F0007A
:10038000F1008D31522581310030F000F1008D31C6
:10039000692581315030F0000030F1008D31802529
:1003A00081312C30F0000130F1008D313C2581315C
:1003B0000030F000F1008D31522581310030F00025
:1003C000F1008D3169258131A030F0000030F1005D
:1003D0008D3180258131C430F0000930F1008D313C
:1003E0003C2581310030F000F1008D315225813102
:1003F0000A30F0000030F1008D3169258131003084
:10040000F000F1008D318025813108009630200008
:10041000AF009030B0008C31D72482310030F00032
:10042000F1008D31522582313230F0000030F10080
:100430008D31692582310030F000F1008D31802549
:1004400082312C30F0000130F1008D313C258231B9
:100450000030F000F1008D31522582316430F0001F
:100460000030F1008D31692582310030F000F1005B
:100470008D31802582312C30F0000130F1008D313A
:100480003C2582311430F0000030F1008D315225CE
:1004900082313230F0000030F1008D316925823137
:1004A0000030F000F1008D31802582312C30F000D9
:1004B0000130F1008D313C2582313230F0000030C6
:1004C000F1008D31522582316430F0000030F100AE
:1004D0008D31692582310030F000F1008D318025A9
:1004E00082312C30F0000130F1008D313C25823119
:1004F0000030F000F1008D3152258231A030F00043
:100500000030F1008D31692582310030F000F100BA
:100510008D3180258231C430F0000930F1008D31F9
:100520003C2582310030F000F1008D3152258231BE
:100530000A30F0000030F1008D3169258231003041
:10054000F000F1008D318025823108003730200025
:10055000AF009030B0008C31D7248231E830F00009
:100560000330F1008D313C2582311430F000003031
:10057000F1008D31522582310030F000F1008D31D3
:10058000692582310030F000F1008D318025823103
:10059000C830F0000030F1008D313C258231003050
:1005A000F000F1008D31522582310030F000F10071
:1005B0008D31692582310030F000F1008D318025C8
:1005C0008231C830F0000030F1008D313C2582319D
:1005D0005030F0000030F1008D3152258231003072
:1005E000F000F1008D31692582310030F000F1001A
:1005F0008D3180258231C830F0000030F1008D311E
:100600003C2582310030F000F1008D3152258231DD
:100610000030F000F1008D31692582310030F000AA
:10062000F1008D3180258231C830F0000030F100BA
:100630008D313C258231A030F0000030F1008D3149
:10064000522582310A30F0000030F1008D316925E9
:1006500082310A30F0000030F1008D318025823186
:10066000A030F0000F30F1008D313C258231003098
:10067000F000F1008D31522582310030F000F100A0
:100680008D31692582310030F000F1008D318025F7
:1006900082310800F8007408860087017808840019
:1006A000850101080002F000F101031CF103801F25
:1006B0005A2BF103811F5D2BF10A8D312B258331DC
:1006C0007008F5007108F600740A86008701780A40
:1006D0008400850101080002F000F101031CF10310
:1006E000801F732BF103811F762BF10A8D312B258F
:1006F00083317608803AF7007108803A7702031D4B
:10070000832B700875020318862B872BEF2B740A36
:10071000860087010108803AF500780A8600870183
:100720000108803AF5020318962B972BBB2B740A0D
:1007300086008701780A8400850101080002F00024
:10074000F101031CF103801FA62BF103811FA92BCC
:10075000F10A8D312B2583317108803AF500803004
:100760007502031DB52B0B307002031CB82BB92B7F
:10077000BB2B5530B82C780A860087010108803AD7
:10078000F500740A860087010108803AF502031813
:10079000CA2BCB2BB72C740A86008701780A8400F9
:1007A000850101080002F000F101031CF103801F24
:1007B000DA2BF103811FDD2BF10A8D312B258331DB
:1007C0007108803AF50080307502031DE92B0B306B
:1007D0007002031CEC2BED2BB72C4430B82C740AA0
:1007E00086008701780A8400850101080002F00074
:1007F000F101031CF103801FFE2BF103811F012C6B
:10080000F10A8D312B2583317008F5007108F6004F
:1008100074088600870178088400850101080002B9
:10082000F000F101031CF103801F172CF103811F5D
:100830001A2CF10A8D312B2583317608803AF70086
:100840007108803A7702031D272C7008750203187F
:100850002A2C2B2CB72C7408860087010108803ABB
:10086000F5007808860087010108803AF502031830
:100870003A2C3B2C712C7808023E86008701010837
:10088000803AF5007408023E860087010108803A2C
:10089000F50203184C2C4D2C712C7408860087012E
:1008A00078088400850101080002F000F101031CB2
:1008B000F103801F5C2CF103811F5F2CF10A8D3145
:1008C0002B2583317108803AF50080307502031DB5
:1008D0006B2C1A307002031C6E2C6F2C712C4C3058
:1008E000B82C7808860087010108803AF500740862
:1008F000860087010108803AF5020318802C812CBC
:10090000B72C7808023E860087010108803AF5007E
:100910007408023E860087010108803AF502031838
:10092000922C932CB72C74088600870178088400D9
:10093000850101080002F000F101031CF103801F92
:10094000A22CF103811FA52CF10A8D312B258331B7
:100950007108803AF50080307502031DB12C1A3001
:100960007002031CB42CB52CB72C5230B82C583064
:1009700008008E311A26843162302000AF0090309A
:10098000B0008C31D72484310030F000F1008D317B
:10099000522584310030F000F1008D316925843119
:1009A0000030F000F1008D3180258431A33020002B
:1009B000AF009030B0008C31D7248431AF302000AC
:1009C000AF009030B0008C31D72484311D3020002E
:1009D000A0008030A1000E30803106208431E83044
:1009E000F0000330F1008D313C258431BB30200014
:1009F000AF009030B0008C31D72484311E302000FD
:100A0000A0002830A1000E308031062084311F3034
:100A10002000A000BF30A1000E30803106208431BC
:100A20001B302000A000A1010E308031062084314F
:100A30001B302000A0008230A1000E308031062043
:100A400084310030F000F1008D31522584310030C6
:100A5000F000F1008D31692584310030F000F100A3
:100A60008D3180258431C7302000AF009030B00038
:100A70008C31D72484312000C1010730A0000E3012
:100A80008F31522784312000C2000930A0000E307F
:100A90008F31522784312000C3000B30A0000E306C
:100AA0008F31522784312000C400210049082000E2
:100AB000CC00210048082000CB002100470820007E
:100AC000CA00210046082000C9004408803AB13E0F
:100AD00003186B2D6C2DAB2D4430C5006430F00035
:100AE0000030F1008D3169258431E830F0000330A9
:100AF000F1008D313C2584310030F000F1008D3162
:100B0000692584316430F0000030F1008D3180259A
:100B10008431E830F0000330F1008D313C25843120
:100B20000030F000F1008D31802584316430F00018
:100B30000030F1008D3152258431E830F00003306F
:100B4000F1008D313C2584310030F000F1008D3111
:100B500052258431AD2D5330C50075302000AF00D3
:100B60009030B0008C31D724843120004108031D1F
:100B7000BA2DBB2DE12D0730A0000E308F3152274A
:100B800084312000C6000930A0000E308F3152277A
:100B900084312000C7000B30A0000E308F31522767
:100BA00084312000C8004B08CC004A08CB0049081B
:100BB000CA004230F400463083314A238431200099
:100BC000C9004608C2004708C3004808C40087306F
:100BD000AF009030B0004908B900BA013908B1003F
:100BE0003A08B2004A08BB00BC013B08B3003C080D
:100BF000B4004B08BD00BE013D08B5003E08B6007C
:100C00004C08BF00C0013F08B7004008B8008C3155
:100C1000D7248431443020004506031D102E112EA8
:100C2000762E4608803A7F3E031C172E182E212E62
:100C30004608F000F101F01BF1038D31522584319B
:100C4000322E4608B900BA01B91BBA03B909BA096C
:100C5000B90A0319BA0A3908F0003A08F1008D31CF
:100C60005225843120004708803A7F3E031C392EEC
:100C70003A2E432E4708F000F101F01BF1038D31AD
:100C800069258431542E4708B900BA01B91BBA034B
:100C9000B909BA09B90A0319BA0A3908F0003A08B9
:100CA000F1008D316925843120004808803A7F3E6B
:100CB000031C5B2E5C2E652E4808F000F101F01B32
:100CC000F1038D3180258431762E4808B900BA01B0
:100CD000B91BBA03B909BA09B90A0319BA0A39081A
:100CE000F0003A08F1008D31802584315330200026
:100CF0004506031D7C2E7D2EF82E4808803ABB3E0B
:100D00000318832E842EAB2E58304906031D892EDE
:100D10008A2EAB2E58304A06031D8F2E902EAB2EF6
:100D200058304B06031D952E962EAB2E58304C0690
:100D3000031D9B2E9C2EAB2E8E31362684314D30DA
:100D40002000C5004E30C9004E30CA004E30CB00E6
:100D50004E30CC00CC2F553049060319B02EB12EA1
:100D6000B72E55304A06031DB62EB72ED12E44306D
:100D70004B060319BC2EBD2EC32E44304C06031D5A
:100D8000C22EC32ED12E4708803A5C3E0318C92ECE
:100D9000CA2ED12E8E31702684314C302000C500F1
:100DA000A22E58304906031DD62ED72EF72E5830C6
:100DB0004A06031DDC2EDD2EF72E58304B06031D90
:100DC000E22EE32EF72E58304C06031DE82EE92EB6
:100DD000F72E4708803A423E031CEF2EF02EF72EE6
:100DE0008231A622843153302000C500A22ECC2FA0
:100DF0004C304506031DFD2EFE2E302F4C3049068B
:100E00000319032F042F0A2F4C304A06031D092F04
:100E10000A2FCC2F52304B0603190F2F102F162FED
:100E200052304C06031D152F162FCC2F4608F0000C
:100E3000F101F01BF1038D312B2584317108803ACB
:100E40002000B90080303902031D282F283070029D
:100E5000031C2B2F2C2FCC2F8D31C7258431F32E43
:100E60004D304506031D352F362FA32F4808803AF5
:100E7000443E031C3C2F3D2F562F58304906031D7E
:100E8000422F432F562F58304A06031D482F492F13
:100E9000562F58304B06031D4E2F4F2F562F5830CC
:100EA0004C06031D542F552F562F2C2F4C3049061E
:100EB00003195B2F5C2F622F4C304A06031D612FF4
:100EC000622F792F44304B060319672F682F6E2F3E
:100ED00044304C06031D6D2F6E2F792F4708803A42
:100EE0005C3E0318742F752F792F8131682184316E
:100EF0009F2E58304906031D7E2F7F2FF72E583026
:100F00004A06031D842F852FF72E58304B06031DEC
:100F10008A2F8B2FF72E58304C06031D902F912FC0
:100F2000F72E4708803ABB3E0318972F982FF72ECD
:100F30005430C5004E30C9004E30CA004E30CB0090
:100F40004E30CC00CC2F54304506031DA82FA92FBE
:100F5000CC2F4708803A853E031CAF2FB02FCC2FF3
:100F600058304906031DB52FB62FCC2F58304A06EE
:100F7000031DBB2FBC2FCC2F58304B06031DC12F98
:100F8000C22FCC2F58304C06031DC72FC82FCC2F93
:100F90008231062284319F2E01302000B9003908A9
:100FA000C1074108803A783E031CD72FD82FB52DB2
:100FB000C101B52D8031022821008B31CF2387312B
:100FC000C6008B31D0238731C7008B31D1238731C5
:100FD000C8008B31D2238731C9004D3084000030E6
:100FE000850023308C312E248731A03084000030DE
:100FF000850026308C312E24873120008431B92C95
:10174C0001300800200091110800240095120800B7
:10175C00210091110800240016140800240096148E
:10176C000800240016150800240096150800240013
:10177C001108080020009115080024009616161672
:10178C000800240096121616080016302100970047
:10179C0008004E344E344E344E34F00070082400A1
:1017AC00910008002000E910E8010E3008008B3190
:1017BC00B4238B31013008008B31B4238B310230D0
:1017CC0008008B31B4238B31013008008B31B723E7
:1017DC008B31003008008B31C7238B31053008006A
:1017EC008B31C3238B310A3008008B31C3238B31EF
:1017FC00093008002000E910E8010E300800003024
:10180C008D31E2258C3108002400160E890C890CD0
:10181C00013908002000911D142C152C102C0800E7
:10182C0071082100C5007008C40008007108200070
:10183C00ED007008EC00080071082000EB00700847
:10184C00EA000800F10071088C3167248C31080023
:10185C00640080010131890B2F2C003420006910A9
:10186C008B31BA238C3104300800200069146335A5
:10187C008B31D3238C3103300800273020009B00A0
:10188C009A01911007309C00080020006914031481
:10189C00630D8B31D3238C31053008002400940167
:1018AC000830950096014F309200951208003C309C
:1018BC0026009A001330980099013F3025009E05B0
:1018CC000800F0002000111E6C2C6D2C682C700888
:1018DC0023009A0008007508F1007408F0007608DF
:1018EC00F20000308E31B1268C3108007508F10001
:1018FC007408F0007608F20002308E31B1268C317B
:10190C0008007030210099009801220096012100F6
:10191C001A1F912C922C8D2C08009A2C8C3110248F
:10192C008C318E31FD268C312000E9189E2C9F2C99
:10193C00942C08002400951AA42CA52CAC2C9401F2
:10194C000830950096014F30920095160800F20071
:10195C002000E91DB22CB32CBA2C7208E4007108DB
:10196C00E6007008E500E91108003C302500930002
:10197C009501803094000130960092011330910053
:10198C00FC309E0508003C3025009A009C018030FC
:10199C009B0001309D00990113309800F3309E0597
:1019AC0008003130FD0000302000A800A9003008EC
:1019BC00AB002F08AA007D30AC008E3152268C3142
:1019CC0008000230F0000030F10077088C31AD24B3
:1019DC008C310030F400F500F6018C3171248C311F
:1019EC00043008000130F0000030F10077088C3131
:1019FC00AD248C310030F400F500F6018C317124EB
:101A0C008C31023008000230F0000030F100770811
:101A1C008C31AD248D310030F400F500F6018C31A1
:101A2C0071248D31023008000130F0000030F100DB
:101A3C0077088C31AD248D310030F400F500F601BF
:101A4C008C3171248D3104300800F11B2E2D2F2D7B
:101A5C00302D3B2D7009F2007109F300F20A0319C5
:101A6C00F30A7208F0007308F1000800452D0B30E2
:101A7C00F2006230890B402DF20B402D0032013008
:101A8C00F0020030F13B700A031D502D710A031D4A
:101A9C00502D512D3D2D08007108F3007008F200F7
:101AAC00F336F20CF336F20C720825009100700834
:101ABC000339F2000430F235890B612D1308CF394C
:101ACC007204930008007108F3007008F200F336FA
:101ADC00F20CF336F20C72082500980070080339EA
:101AEC00F2000430F235890B782D1A08CF397204C4
:101AFC009A0008007108F3007008F200F336F20C3B
:101B0C00F336F20C72082600980070080339F200C4
:101B1C000430F235890B8F2D1A08CF3972049A00D4
:101B2C000800F001F00A2000E9189D2D9E2DAD2D26
:101B3C006911FF30E3008B31A8238D318B31AE233B
:101B4C008D318B31AB238D3120006808F00070088B
:101B5C000800770886008701403FF000413FF10004
:101B6C007708023E8600870101088C31AD248D3147
:101B7C000030F400F500F6018C3171248D31023007
:101B8C000800DF302000AF009030B0008C31D7243B
:101B9C008D310030F000F1008D3152258D31003047
:101BAC00F000F1008D3169258D310030F000F1002D
:101BBC008D3180258D310800FC00FD01FD0A2000CF
:101BCC00E918E92DEA2DFC2DE914FD017C08031917
:101BDC00F02DF12DF42DE701E70AF62D0230E70088
:101BEC008B31B1238D318C3193248D317D080800DC
:101BFC0022008C018D018E013F3021008C00F030D1
:101C0C008D0097308E00C73023008E008D01173069
:101C1C008C0024008D018C018E012100951704305D
:101C2C0022009D009E0108008C3154248E318D3190
:101C3C00FE258E318C3187248E318B31CB238E3126
:101C4C008C31C9248E318C31BB248E318C315D2486
:101C5C008E318C3143248E318E318E268E3108009C
:101C6C0020302000AF009030B0008C31D7248E3162
:101C7C000030F000F1008D3152258E310A30F00029
:101C8C000030F1008D3169258E310030F000F1000B
:101C9C008D3180258E31080020002B08AE002A08DB
:101CAC00AD00632E2908A1002808A0002D30A20049
:101CBC002C08A3008031E8208E3120002D088400F0
:101CCC002E0885001200031D6C2E6D2E582EA801B7
:101CDC00A9010800D3302000AF009030B0008C3147
:101CEC00D7248E310F30F0000030F1008D315225A9
:101CFC008E31A030F0000030F1008D3169258E312D
:101D0C00A030F0000030F1008D3180258E310800BC
:101D1C00083023009F0090309D0024309E004030FE
:101D2C009B0003309C000030F0000030F1008C313F
:101D3C001C248E310030F0000030F1008C31222454
:101D4C008E310030F0000030F1008C3116248E31D1
:101D5C002000EF010800F300700871040319B72E7E
:101D6C00B82EC72E73354D3E860087017008C03FD4
:101D7C007108C13F7308593E8600870172088100C3
:101D8C00D42E73354D3E86008701A630C03F0B30F4
:101D9C00C13F7308593E860087018101080020006D
:101DAC0069100230E800E22E8B31E7238E31FC2ED5
:101DBC008B31EC238E31FC2E5B08F70004304D3E4A
:101DCC0086008701413F8A00403F0A008E31F800AF
:101DDC00F9017908003A0319F42EDE2E7808023A3C
:101DEC000319DA2E013A0319DA2EDE2E08008B3194
:101DFC00A8238E312000691C042F052F102F8C3145
:101E0C000A248E31003A03190C2F0D2F102F0F308E
:101E1C002000E70020006708FA00FB01FA35FB0DF3
:101E2C0000307A07840010307B3D80388500013FFC
:101E3C008A00003F0A008F312000E70008002000D4
:101E4C00E915352F8B31E7238F31512F8B31C0237F
:101E5C008F310330512F8B31EC238F31512F590897
:101E6C00F7004E088A004D080A008F31F800F9017E
:101E7C007908003A0319432F312F7808013A0319D6
:101E8C00312F033A0319282F013A0319282F073A47
:101E9C0003192C2F312F08002000A100A2012000D3
:101EAC0021088F3187278F31003A03195E2F5F2F5E
:101EBC00552FF830F4000C30F5002230F6008C3140
:101ECC0071248F310130F0000030F10020308C3162
:101EDC00AD248F310030F400F5000030F600F7002F
:101EEC008C317C248F318C3105248F318D319725A9
:101EFC008F31013A0319832F842F7C2F2000220865
:101F0C000800F000F101F10A200069198E2F8F2FC3
:101F1C00BB2F7008E300E910691569100E30E7005B
:101F2C00F430E1000130E200E915A630CD000B30B1
:101F3C00CE00D901A630CF000B30D000DA01A6308C
:101F4C00D1000B30D200DB01A630D3000B30D40013
:101F5C00DC010430D5000030D600DD018B31A82324
:101F6C008F318C31A0248F31F101710808002000D1
:101F7C006408860087018B31BD238F3181000130CD
:101F8C00F80078082000E4070130E5020030E63B59
:101F9C00650866040319D32FD42FD92F8B31C7238F
:101FAC008F310530FF2FE915E32F8B31FB238F3158
:101FBC00FF2F8B31F6238F31FF2F5908F7004E0876
:101FCC008A004D080A008F31F800F9017908003AAF
:101FDC000319F12FDF2F7808013A0319DF2F033A89
:101FEC000319DB2F013A0319DB2F073A0319DF2FF3
:101FFC00DF2F0800D8340B344B340C343B340C3406
:10200C0038340034BD340F3434340C3425340F34AC
:10201C00DD340B34E2340B34E7340B34EC340B3456
:10202C00F1340B34F6340B34FB340B3400340C34F5
:10203C00D5340E340A340D34203444344134523403
:10204C004B3420344D3441344734493443342034F8
:10205C005334543441345434453420340A340D341C
:10206C0000340A340D34203445345834503445345B
:10207C00433454344F342034503441345434523477
:10208C004F344E3455344D3420340A340D3400342E
:10209C000A340D3420344134563441344434413400
:1020AC0020344B3445344434413456345234413466
:1020BC0020340A340D3400340A340D3420345334B3
:1020CC00743461347234743469346E34673420344B
:1020DC002E342E342E3420340A340D3400340A3489
:1020EC000D342034523475346E346E3469346E349D
:1020FC00673420342E342E342E3420340A340D34EC
:10210C0000342534633420342534633420342534AE
:10211C00633420342534633420340A340D340034D1
:10212C000A340D3420344334523455344334493456
:10213C004F3420340A340D3400340A340D34203436
:10214C00313420342E342E342E3420340A340D34D1
:10215C0000340A340D342034323420342E342E34EE
:10216C002E3420340A340D3400340A340D34203427
:10217C00333420342E342E342E3420340A340D349F
:10218C0000340A340D342034343420342E342E34BC
:10219C002E3420340A340D3400340A340D342034F7
:1021AC004C3455344D344F34533420340A340D34BC
:1021BC0000340A340D3420344E344F345834203427
:0621CC000A340D3400345A
:020000040001F9
:04000E00E43FFF3F8D
:00000001FF
